{
  "contractName": "BankDapp",
  "abi": [
    {
      "inputs": [],
      "stateMutability": "nonpayable",
      "type": "constructor"
    },
    {
      "anonymous": false,
      "inputs": [
        {
          "indexed": true,
          "internalType": "address",
          "name": "_from",
          "type": "address"
        },
        {
          "indexed": false,
          "internalType": "uint256",
          "name": "",
          "type": "uint256"
        }
      ],
      "name": "LogDepositMade",
      "type": "event"
    },
    {
      "anonymous": false,
      "inputs": [
        {
          "indexed": true,
          "internalType": "address",
          "name": "",
          "type": "address"
        },
        {
          "indexed": false,
          "internalType": "uint256",
          "name": "",
          "type": "uint256"
        }
      ],
      "name": "LogWithdrawMade",
      "type": "event"
    },
    {
      "anonymous": false,
      "inputs": [
        {
          "indexed": false,
          "internalType": "address",
          "name": "",
          "type": "address"
        },
        {
          "indexed": false,
          "internalType": "uint256",
          "name": "",
          "type": "uint256"
        }
      ],
      "name": "Received",
      "type": "event"
    },
    {
      "inputs": [],
      "name": "owner",
      "outputs": [
        {
          "internalType": "address payable",
          "name": "",
          "type": "address"
        }
      ],
      "stateMutability": "view",
      "type": "function",
      "constant": true
    },
    {
      "stateMutability": "payable",
      "type": "receive",
      "payable": true
    },
    {
      "inputs": [],
      "name": "deposit",
      "outputs": [],
      "stateMutability": "payable",
      "type": "function",
      "payable": true
    },
    {
      "inputs": [
        {
          "internalType": "address payable",
          "name": "_to",
          "type": "address"
        },
        {
          "internalType": "uint256",
          "name": "_amount",
          "type": "uint256"
        }
      ],
      "name": "withdrawMoney",
      "outputs": [],
      "stateMutability": "nonpayable",
      "type": "function"
    },
    {
      "inputs": [],
      "name": "withdrawAllBankBalance",
      "outputs": [],
      "stateMutability": "payable",
      "type": "function",
      "payable": true
    },
    {
      "inputs": [],
      "name": "userBankAccountBalance",
      "outputs": [
        {
          "internalType": "uint256",
          "name": "",
          "type": "uint256"
        }
      ],
      "stateMutability": "view",
      "type": "function",
      "constant": true
    },
    {
      "inputs": [],
      "name": "userBalance",
      "outputs": [
        {
          "internalType": "uint256",
          "name": "",
          "type": "uint256"
        }
      ],
      "stateMutability": "view",
      "type": "function",
      "constant": true
    },
    {
      "inputs": [],
      "name": "totalBankDappBalance",
      "outputs": [
        {
          "internalType": "uint256",
          "name": "",
          "type": "uint256"
        }
      ],
      "stateMutability": "view",
      "type": "function",
      "constant": true
    },
    {
      "inputs": [],
      "name": "bankBalance",
      "outputs": [
        {
          "internalType": "uint256",
          "name": "",
          "type": "uint256"
        }
      ],
      "stateMutability": "view",
      "type": "function",
      "constant": true
    }
  ],
  "bytecode": "0x608060405234801561001057600080fd5b5033600160006101000a81548173ffffffffffffffffffffffffffffffffffffffff021916908373ffffffffffffffffffffffffffffffffffffffff160217905550610e4d806100616000396000f3fe60806040526004361061007f5760003560e01c80638da5cb5b1161004e5780638da5cb5b1461014f578063bf1527651461017a578063d0e30db0146101a5578063f274c897146101af576100bf565b806328657aa5146100c4578063314230e0146100ef5780636bb78b411461011a5780638c66c75614610145576100bf565b366100bf577f88a5966d370b9919b20f3e2c13ff65706f196a4e32cc2c12bf57088f8852587433346040516100b5929190610a0e565b60405180910390a1005b600080fd5b3480156100d057600080fd5b506100d96101d8565b6040516100e69190610b17565b60405180910390f35b3480156100fb57600080fd5b506101046101f7565b6040516101119190610b17565b60405180910390f35b34801561012657600080fd5b5061012f610200565b60405161013c9190610b17565b60405180910390f35b61014d610247565b005b34801561015b57600080fd5b50610164610435565b60405161017191906109f3565b60405180910390f35b34801561018657600080fd5b5061018f61045b565b60405161019c9190610b17565b60405180910390f35b6101ad61047a565b005b3480156101bb57600080fd5b506101d660048036038101906101d1919061085d565b610591565b005b60003073ffffffffffffffffffffffffffffffffffffffff1631905090565b60008054905090565b6000600260003373ffffffffffffffffffffffffffffffffffffffff1673ffffffffffffffffffffffffffffffffffffffff16815260200190815260200160002054905090565b600160009054906101000a900473ffffffffffffffffffffffffffffffffffffffff1673ffffffffffffffffffffffffffffffffffffffff163373ffffffffffffffffffffffffffffffffffffffff16146102d7576040517f08c379a00000000000000000000000000000000000000000000000000000000081526004016102ce90610ab7565b60405180910390fd5b34600260003373ffffffffffffffffffffffffffffffffffffffff1673ffffffffffffffffffffffffffffffffffffffff16815260200190815260200160002060008282546103269190610ba4565b9250508190555060003373ffffffffffffffffffffffffffffffffffffffff16600054604051610355906109de565b60006040518083038185875af1925050503d8060008114610392576040519150601f19603f3d011682016040523d82523d6000602084013e610397565b606091505b50509050806103db576040517f08c379a00000000000000000000000000000000000000000000000000000000081526004016103d290610a37565b60405180910390fd5b600080819055503373ffffffffffffffffffffffffffffffffffffffff167f5e0adeef7e7b24a7c2e0bf7c9947ca44b57e5b87a84b6c9848cb42247104e7fd60005460405161042a9190610b17565b60405180910390a250565b600160009054906101000a900473ffffffffffffffffffffffffffffffffffffffff1681565b60003373ffffffffffffffffffffffffffffffffffffffff1631905090565b343373ffffffffffffffffffffffffffffffffffffffff1631116104d3576040517f08c379a00000000000000000000000000000000000000000000000000000000081526004016104ca90610a97565b60405180910390fd5b346000808282546104e49190610b4e565b9250508190555034600260003373ffffffffffffffffffffffffffffffffffffffff1673ffffffffffffffffffffffffffffffffffffffff168152602001908152602001600020600082825461053a9190610b4e565b925050819055503373ffffffffffffffffffffffffffffffffffffffff167fa8126f7572bb1fdeae5b5aa9ec126438b91f658a07873f009d041ae690f3a193346040516105879190610b17565b60405180910390a2565b8173ffffffffffffffffffffffffffffffffffffffff163373ffffffffffffffffffffffffffffffffffffffff16146105ff576040517f08c379a00000000000000000000000000000000000000000000000000000000081526004016105f690610ad7565b60405180910390fd5b80600260008473ffffffffffffffffffffffffffffffffffffffff1673ffffffffffffffffffffffffffffffffffffffff168152602001908152602001600020541015610681576040517f08c379a000000000000000000000000000000000000000000000000000000000815260040161067890610af7565b60405180910390fd5b8060005410156106c6576040517f08c379a00000000000000000000000000000000000000000000000000000000081526004016106bd90610a77565b60405180910390fd5b806000808282546106d79190610ba4565b9250508190555080600260008473ffffffffffffffffffffffffffffffffffffffff1673ffffffffffffffffffffffffffffffffffffffff168152602001908152602001600020600082825461072d9190610ba4565b9250508190555060008273ffffffffffffffffffffffffffffffffffffffff168260405161075a906109de565b60006040518083038185875af1925050503d8060008114610797576040519150601f19603f3d011682016040523d82523d6000602084013e61079c565b606091505b50509050806107e0576040517f08c379a00000000000000000000000000000000000000000000000000000000081526004016107d790610a57565b60405180910390fd5b3373ffffffffffffffffffffffffffffffffffffffff167f5e0adeef7e7b24a7c2e0bf7c9947ca44b57e5b87a84b6c9848cb42247104e7fd836040516108269190610b17565b60405180910390a2505050565b60008135905061084281610de9565b92915050565b60008135905061085781610e00565b92915050565b6000806040838503121561087057600080fd5b600061087e85828601610833565b925050602061088f85828601610848565b9150509250929050565b6108a281610bea565b82525050565b6108b181610bd8565b82525050565b60006108c4601483610b3d565b91506108cf82610c55565b602082019050919050565b60006108e7601883610b3d565b91506108f282610c7e565b602082019050919050565b600061090a602f83610b3d565b915061091582610ca7565b604082019050919050565b600061092d601f83610b3d565b915061093882610cf6565b602082019050919050565b6000610950603083610b3d565b915061095b82610d1f565b604082019050919050565b6000610973600083610b32565b915061097e82610d6e565b600082019050919050565b6000610996602b83610b3d565b91506109a182610d71565b604082019050919050565b60006109b9602083610b3d565b91506109c482610dc0565b602082019050919050565b6109d881610c1c565b82525050565b60006109e982610966565b9150819050919050565b6000602082019050610a086000830184610899565b92915050565b6000604082019050610a2360008301856108a8565b610a3060208301846109cf565b9392505050565b60006020820190508181036000830152610a50816108b7565b9050919050565b60006020820190508181036000830152610a70816108da565b9050919050565b60006020820190508181036000830152610a90816108fd565b9050919050565b60006020820190508181036000830152610ab081610920565b9050919050565b60006020820190508181036000830152610ad081610943565b9050919050565b60006020820190508181036000830152610af081610989565b9050919050565b60006020820190508181036000830152610b10816109ac565b9050919050565b6000602082019050610b2c60008301846109cf565b92915050565b600081905092915050565b600082825260208201905092915050565b6000610b5982610c1c565b9150610b6483610c1c565b9250827fffffffffffffffffffffffffffffffffffffffffffffffffffffffffffffffff03821115610b9957610b98610c26565b5b828201905092915050565b6000610baf82610c1c565b9150610bba83610c1c565b925082821015610bcd57610bcc610c26565b5b828203905092915050565b6000610be382610bfc565b9050919050565b6000610bf582610bfc565b9050919050565b600073ffffffffffffffffffffffffffffffffffffffff82169050919050565b6000819050919050565b7f4e487b7100000000000000000000000000000000000000000000000000000000600052601160045260246000fd5b7f4661696c656420746f2073656e64206d6f6e6579000000000000000000000000600082015250565b7f4661696c656420746f207769746864726177206d6f6e65790000000000000000600082015250565b7f5769746864726177616c2063616e2774206265206d6164652061732042616e6b60008201527f2062616c616e6365206973206c6f770000000000000000000000000000000000602082015250565b7f5573657220686173206e6f742073756666696369656e742062616c616e636500600082015250565b7f4f6e6c79206f776e6572206f66207468652042616e6b2063616e20706572666f60008201527f726d20746869732066756e6374696f6e00000000000000000000000000000000602082015250565b50565b7f596f752063616e207472616e73666572206d6f6e657920746f20796f7572206160008201527f63636f756e74206f6e6c79000000000000000000000000000000000000000000602082015250565b7f596f75722042616e6b204163636f756e742062616c616e6365206973206c6f77600082015250565b610df281610bea565b8114610dfd57600080fd5b50565b610e0981610c1c565b8114610e1457600080fd5b5056fea2646970667358221220446f60eb8d4575f8e17b796edfb3d807c44afc4fae7b9bc765ce577d42c5925764736f6c63430008040033",
  "immutableReferences": {},
  "source": "// SPDX-License-Identifier: GPL-3.0\r\npragma solidity ^0.8.0;\r\n\r\ncontract BankDapp {\r\n    uint256 totalBankBalance;\r\n    address payable public owner;\r\n    mapping(address => uint256) userBankAccountBalances;\r\n\r\n    constructor() {\r\n        owner = payable(msg.sender);\r\n    }\r\n\r\n    event Received(address, uint);\r\n\r\n    receive() external payable {\r\n        emit Received(msg.sender, msg.value);\r\n    }\r\n\r\n    event LogDepositMade(address indexed _from, uint256);\r\n\r\n    function deposit() public payable {\r\n        require(address(msg.sender).balance > msg.value, \"User has not sufficient balance\");\r\n        totalBankBalance += msg.value;\r\n        userBankAccountBalances[msg.sender] += msg.value;\r\n        emit LogDepositMade(msg.sender, msg.value);\r\n    }\r\n\r\n    event LogWithdrawMade(address indexed, uint256);\r\n\r\n    // function withdraw() public {\r\n    //     require(userBankAccountBalances[msg.sender] > msg.value, \"Your Bank Account balance is low\");\r\n    //     require(totalBankBalance > msg.value, \"Withdrawal can't be made as Bank balance is low\");\r\n    //     totalBankBalance -= msg.value;\r\n    //     userBankAccountBalances[msg.sender] -= msg.value;\r\n    //     // address to = payable(msg.sender);\r\n    //     // (bool sent, bytes memory data) = to.call{value: msg.value}(\"\");\r\n    //     (bool sent,) = payable(address(msg.sender)).call{value: msg.value}(\"\");\r\n    //     // bool sent = payable(msg.sender).send(msg.value);\r\n    //     require(sent, \"Failed to withdraw money\");\r\n    //     emit LogWithdrawMade(msg.sender, msg.value);\r\n    // }\r\n    function withdrawMoney(address payable _to, uint _amount) public {\r\n        require(address(msg.sender) == address(_to), \"You can transfer money to your account only\");\r\n        require(userBankAccountBalances[_to] >= _amount, \"Your Bank Account balance is low\");\r\n        require(totalBankBalance >= _amount, \"Withdrawal can't be made as Bank balance is low\");\r\n        totalBankBalance -= _amount;\r\n        userBankAccountBalances[_to] -= _amount;\r\n        (bool sent,) = payable(address(_to)).call{value: _amount}(\"\");\r\n        require(sent, \"Failed to withdraw money\");\r\n        emit LogWithdrawMade(msg.sender, _amount );\r\n    }\r\n\r\n    function withdrawAllBankBalance() public payable {\r\n        require(address(msg.sender) == owner, \"Only owner of the Bank can perform this function\");\r\n        userBankAccountBalances[msg.sender] -= msg.value;\r\n        // (bool sent, bytes memory data) = to.call{value: totalBankBalance}(\"\");\r\n        (bool sent, ) = payable(msg.sender).call{value: totalBankBalance}(\"\");\r\n\r\n        require(sent, \"Failed to send money\");\r\n        totalBankBalance = 0;\r\n        emit LogWithdrawMade(msg.sender, totalBankBalance);\r\n    }\r\n\r\n    function userBankAccountBalance() public view returns (uint256) {\r\n        return userBankAccountBalances[msg.sender];\r\n    }\r\n    function userBalance() public view returns (uint256) {\r\n        return msg.sender.balance;\r\n    }\r\n\r\n    function totalBankDappBalance() public view returns (uint256) {\r\n        return totalBankBalance;\r\n    }\r\n    function bankBalance() public view returns (uint256) {\r\n        return payable(address(this)).balance;\r\n    }\r\n}\r\n",
  "sourcePath": "G:/Workspaces_Github/Workspace_Blockchain/Frontend_to_BSC_SmartContract/contracts/BankDapp.sol",
  "compiler": {
    "name": "solc",
    "version": "0.8.4+commit.c7e474f2.Emscripten.clang"
  },
  "schemaVersion": "3.4.1",
  "updatedAt": "2021-05-31T13:16:05.770Z",
  "networkType": "ethereum",
  "devdoc": {
    "kind": "dev",
    "methods": {},
    "version": 1
  },
  "userdoc": {
    "kind": "user",
    "methods": {},
    "version": 1
  }
}