{
  "contractName": "SimpleStorage",
  "abi": [
    {
      "inputs": [],
      "stateMutability": "nonpayable",
      "type": "constructor"
    },
    {
      "anonymous": false,
      "inputs": [
        {
          "indexed": false,
          "internalType": "address",
          "name": "",
          "type": "address"
        },
        {
          "indexed": false,
          "internalType": "uint256",
          "name": "",
          "type": "uint256"
        }
      ],
      "name": "LogDepositMade",
      "type": "event"
    },
    {
      "anonymous": false,
      "inputs": [
        {
          "indexed": false,
          "internalType": "address",
          "name": "",
          "type": "address"
        },
        {
          "indexed": false,
          "internalType": "uint256",
          "name": "",
          "type": "uint256"
        }
      ],
      "name": "LogWithdrawMade",
      "type": "event"
    },
    {
      "inputs": [],
      "name": "contractEtherBalance",
      "outputs": [
        {
          "internalType": "uint256",
          "name": "",
          "type": "uint256"
        }
      ],
      "stateMutability": "view",
      "type": "function",
      "constant": true
    },
    {
      "inputs": [],
      "name": "data",
      "outputs": [
        {
          "internalType": "uint256",
          "name": "",
          "type": "uint256"
        }
      ],
      "stateMutability": "view",
      "type": "function",
      "constant": true
    },
    {
      "inputs": [
        {
          "internalType": "address",
          "name": "",
          "type": "address"
        }
      ],
      "name": "userBalances",
      "outputs": [
        {
          "internalType": "uint256",
          "name": "",
          "type": "uint256"
        }
      ],
      "stateMutability": "view",
      "type": "function",
      "constant": true
    },
    {
      "inputs": [
        {
          "internalType": "uint256",
          "name": "_data",
          "type": "uint256"
        }
      ],
      "name": "updateData",
      "outputs": [],
      "stateMutability": "nonpayable",
      "type": "function"
    },
    {
      "inputs": [],
      "name": "readData",
      "outputs": [
        {
          "internalType": "uint256",
          "name": "",
          "type": "uint256"
        }
      ],
      "stateMutability": "view",
      "type": "function",
      "constant": true
    },
    {
      "inputs": [],
      "name": "deposit",
      "outputs": [],
      "stateMutability": "payable",
      "type": "function",
      "payable": true
    },
    {
      "inputs": [],
      "name": "withdraw",
      "outputs": [],
      "stateMutability": "payable",
      "type": "function",
      "payable": true
    },
    {
      "inputs": [],
      "name": "totalBalance",
      "outputs": [
        {
          "internalType": "uint256",
          "name": "",
          "type": "uint256"
        }
      ],
      "stateMutability": "view",
      "type": "function",
      "constant": true
    },
    {
      "inputs": [],
      "name": "totalContractBalance",
      "outputs": [
        {
          "internalType": "uint256",
          "name": "",
          "type": "uint256"
        }
      ],
      "stateMutability": "view",
      "type": "function",
      "constant": true
    }
  ],
  "bytecode": "0x608060405234801561001057600080fd5b5033600260006101000a81548173ffffffffffffffffffffffffffffffffffffffff021916908373ffffffffffffffffffffffffffffffffffffffff160217905550610822806100616000396000f3fe6080604052600436106100865760003560e01c806373d4a13a1161005957806373d4a13a14610126578063ad7a672f14610151578063bac03cd71461017c578063bef55ef3146101a7578063d0e30db0146101d257610086565b806309e960081461008b5780631fff0ee8146100b457806326224c64146100df5780633ccfd60b1461011c575b600080fd5b34801561009757600080fd5b506100b260048036038101906100ad9190610509565b6101dc565b005b3480156100c057600080fd5b506100c96101e6565b6040516100d691906105ff565b60405180910390f35b3480156100eb57600080fd5b50610106600480360381019061010191906104e0565b6101ec565b60405161011391906105ff565b60405180910390f35b610124610204565b005b34801561013257600080fd5b5061013b6103eb565b60405161014891906105ff565b60405180910390f35b34801561015d57600080fd5b506101666103f1565b60405161017391906105ff565b60405180910390f35b34801561018857600080fd5b506101916103f9565b60405161019e91906105ff565b60405180910390f35b3480156101b357600080fd5b506101bc610403565b6040516101c991906105ff565b60405180910390f35b6101da61040c565b005b8060008190555050565b60015481565b60036020528060005260406000206000915090505481565b600260009054906101000a900473ffffffffffffffffffffffffffffffffffffffff1673ffffffffffffffffffffffffffffffffffffffff163373ffffffffffffffffffffffffffffffffffffffff1614610294576040517f08c379a000000000000000000000000000000000000000000000000000000000815260040161028b906105bf565b60405180910390fd5b34600154116102d8576040517f08c379a00000000000000000000000000000000000000000000000000000000081526004016102cf906105df565b60405180910390fd5b34600160008282546102ea9190610681565b9250508190555034600360003373ffffffffffffffffffffffffffffffffffffffff1673ffffffffffffffffffffffffffffffffffffffff16815260200190815260200160002060008282546103409190610681565b92505081905550600260009054906101000a900473ffffffffffffffffffffffffffffffffffffffff1673ffffffffffffffffffffffffffffffffffffffff166108fc349081150290604051600060405180830381858888f193505050501580156103af573d6000803e3d6000fd5b507f5e0adeef7e7b24a7c2e0bf7c9947ca44b57e5b87a84b6c9848cb42247104e7fd33346040516103e1929190610596565b60405180910390a1565b60005481565b600047905090565b6000600154905090565b60008054905090565b346001600082825461041e919061062b565b9250508190555034600360003373ffffffffffffffffffffffffffffffffffffffff1673ffffffffffffffffffffffffffffffffffffffff1681526020019081526020016000206000828254610474919061062b565b925050819055507fa8126f7572bb1fdeae5b5aa9ec126438b91f658a07873f009d041ae690f3a19333346040516104ac929190610596565b60405180910390a1565b6000813590506104c5816107be565b92915050565b6000813590506104da816107d5565b92915050565b6000602082840312156104f257600080fd5b6000610500848285016104b6565b91505092915050565b60006020828403121561051b57600080fd5b6000610529848285016104cb565b91505092915050565b61053b816106b5565b82525050565b600061054e60228361061a565b915061055982610720565b604082019050919050565b600061057160338361061a565b915061057c8261076f565b604082019050919050565b610590816106e7565b82525050565b60006040820190506105ab6000830185610532565b6105b86020830184610587565b9392505050565b600060208201905081810360008301526105d881610541565b9050919050565b600060208201905081810360008301526105f881610564565b9050919050565b60006020820190506106146000830184610587565b92915050565b600082825260208201905092915050565b6000610636826106e7565b9150610641836106e7565b9250827fffffffffffffffffffffffffffffffffffffffffffffffffffffffffffffffff03821115610676576106756106f1565b5b828201905092915050565b600061068c826106e7565b9150610697836106e7565b9250828210156106aa576106a96106f1565b5b828203905092915050565b60006106c0826106c7565b9050919050565b600073ffffffffffffffffffffffffffffffffffffffff82169050919050565b6000819050919050565b7f4e487b7100000000000000000000000000000000000000000000000000000000600052601160045260246000fd5b7f4f6e6c79206f776e65722063616e2063616c6c20746869732066756e6374696f60008201527f6e2e000000000000000000000000000000000000000000000000000000000000602082015250565b7f5769746864726177616c2063616e2774206265206d61646520617320636f6e7460008201527f726163742062616c616e6365206973206c6f7700000000000000000000000000602082015250565b6107c7816106b5565b81146107d257600080fd5b50565b6107de816106e7565b81146107e957600080fd5b5056fea26469706673582212202e60ba22469ca9e39751609c2805a2a772403d78345e8d1cf62e3ae2549bc4b364736f6c63430008040033",
  "immutableReferences": {},
  "source": "// SPDX-License-Identifier: GPL-3.0\r\npragma solidity ^0.8.0;\r\n\r\ncontract SimpleStorage {\r\n    uint256 public data;\r\n    uint256 public contractEtherBalance;\r\n    address payable owner;\r\n    mapping(address => uint256) public userBalances;\r\n\r\n    constructor() {\r\n        owner = payable(msg.sender);\r\n    }\r\n\r\n    function updateData(uint256 _data) external {\r\n        data = _data;\r\n    }\r\n\r\n    function readData() external view returns (uint256) {\r\n        return data;\r\n    }\r\n\r\n    event LogDepositMade(address, uint256);\r\n\r\n    function deposit() public payable {\r\n        contractEtherBalance += msg.value;\r\n        userBalances[msg.sender] += msg.value;\r\n        emit LogDepositMade(msg.sender, msg.value);\r\n    }\r\n\r\n    event LogWithdrawMade(address, uint256);\r\n\r\n    function withdraw() public payable {\r\n        require(msg.sender == owner, \"Only owner can call this function.\");\r\n        require(contractEtherBalance > msg.value, \"Withdrawal can't be made as contract balance is low\");\r\n        contractEtherBalance -= msg.value;\r\n        userBalances[msg.sender] -= msg.value;\r\n        owner.transfer(msg.value);\r\n        emit LogWithdrawMade(msg.sender, msg.value);\r\n    }\r\n\r\n    function totalBalance() public view returns (uint256) {\r\n        return address(this).balance;\r\n    }\r\n\r\n    function totalContractBalance() public view returns (uint256) {\r\n        return contractEtherBalance;\r\n    }\r\n\r\n    \r\n}\r\n",
  "sourcePath": "G:/Workspaces_Github/Workspace_Blockchain/Frontend_to_BSC_SmartContract/contracts/SimpleStorage.sol",
  "compiler": {
    "name": "solc",
    "version": "0.8.4+commit.c7e474f2.Emscripten.clang"
  },
  "schemaVersion": "3.4.1",
  "updatedAt": "2021-05-31T13:16:05.763Z",
  "networkType": "ethereum",
  "devdoc": {
    "kind": "dev",
    "methods": {},
    "version": 1
  },
  "userdoc": {
    "kind": "user",
    "methods": {},
    "version": 1
  }
}